:100000000C94EC000C9414010C9414010C94140145
:100010000C9414010C9414010C9414010C9414010C
:100020000C9414010C9414010C9414010C941401FC
:100030000C9414010C9414010C9414010C941401EC
:100040000C9414010C9414010C9414010C941401DC
:100050000C9414010C94CC070C9414010C9414010E
:100060000C9414010C9414010C9414010C941401BC
:100070000C9414010C9414010C9414010C941401AC
:100080000C9414010C9414010C9414010C9414019C
:100090000C9414010C9414010C9414010C9414018C
:1000A0000C9414010C9414010C941401084AD73BCD
:1000B0003BCE016E84BCBFFDC12F3D6C74319ABD37
:1000C00056833DDA3D00C77F11BED9E4BB4C3E915B
:1000D0006BAAAABE000000803F00407A10F35A00CD
:1000E000A0724E18090010A5D4E80000E876481761
:1000F0000000E40B54020000CA9A3B000000E1F546
:1001000005000080969800000040420F000000A00B
:100110008601000000102700000000E80300000036
:10012000006400000000000A000000000001000060
:100130000000002C76D888DC674F0823DFC1DFAED3
:1001400059E1B1B796E5E3E453C63AE6519976969C
:10015000E8E6C28426EB898C9B62ED407C6FFCEF65
:10016000BC9C9F40F2BAA56FA5F490055A2AF75C93
:10017000936B6CF9676DC11BFCE0E40D47FEF52045
:10018000E6B500D0ED902E0300943577050080840D
:100190001E080000204E0A000000C80C3333333321
:1001A0000F986E12831141EF8D2114893BE655168D
:1001B000CFFEE6DB18D1844B381BF77C1D901DA4C5
:1001C000BBE424203284725E228100C9F124ECA1B8
:1001D000E53D2700F207F90711241FBECFEFDAE053
:1001E000DEBFCDBF21E0A6E0B1E001C01D92AF3A75
:1001F000B207E1F711E0A0E0B1E0EEE9FEE102C0F4
:1002000005900D92A630B107D9F711E0C6EDD1E007
:1002100004C02297FE010E94750BC43DD107C9F7A7
:100220000E941D070C94420F0C94000060E083E5CF
:100230000E947D0881E30E94AF088BE00E94AF0816
:100240008FE39CE90197F1F700C0000060E083E5CF
:100250000E947D088DE20E94AF0880E00E94AF08F6
:100260008FE39CE90197F1F700C0000060E083E5AF
:100270000E947D088DE20E94AF0886E10E94AF08CF
:100280008FE39CE90197F1F700C0000060E083E58F
:100290000E947D088DE20E94AF0888E00E94AF08AE
:1002A0009FEF23EF81E0915020408040E1F700C0B4
:1002B00000000E94A6080895CF92DF92EF92FF926D
:1002C0000F931F93CF93DF93EC0160E083E50E94CF
:1002D0007D0882E30E94AF0861E083E50E947D080B
:1002E0000E94CC086E0197E4C90ED11CF6018083F0
:1002F000118260E083E50E947D0883E30E94AF08DD
:1003000061E083E50E947D080E94CC08382F20E040
:10031000F60180819181280F391F3183208360E0AD
:1003200083E50E947D0884E30E94AF0861E083E5D5
:100330000E947D080E94CC087E01F9E4EF0EF11CBA
:10034000F7018083118260E083E50E947D0885E3E8
:100350000E94AF0861E083E50E947D080E94CC08FE
:10036000382F20E0F70180819181280F391F3183D8
:10037000208360E083E50E947D0886E30E94AF0849
:1003800061E083E50E947D080E94CC088E01055B38
:100390001F4FF8018083118260E083E50E947D0891
:1003A00087E30E94AF0861E083E50E947D080E9418
:1003B000CC08382F20E0F80180819181280F391F67
:1003C000318320830E94A608F6016081718188270D
:1003D00077FD8095982F0E94550A26E730EE4CE174
:1003E0005DE30E940D0B2FA538A949A95AA90E94C7
:1003F0002409698B7A8B8B8B9C8BF70160817181CF
:10040000882777FD8095982F0E94550A26E730EEC1
:100410004CE15DE30E940D0B2BA93CA94DA95EA9FF
:100420000E9424096D8B7E8B8F8B988FF8016081E1
:100430007181882777FD8095982F0E94550A26E7BD
:1004400030EE4CE15DE30E940D0B2FA938AD49ADB4
:100450005AAD0E942409698F7A8F8B8F9C8FDF9110
:10046000CF911F910F91FF90EF90DF90CF90089563
:1004700088E090E09093CD008093CC00E9ECF0E030
:10048000808188608083808180618083EAECF0E0F5
:1004900080818E6080830895E8ECF0E0808185FFA4
:1004A000FDCF6093CE0008950F931F93CF93DF93FA
:1004B0008C01EB016881662339F02196C8010E9406
:1004C0004C0269916111FACFDF91CF911F910F9189
:1004D0000895EF92FF920F931F93CF93DF93CDB7C1
:1004E000DEB72C970FB6F894DEBF0FBECDBF7C01F0
:1004F000CB01BA018E010F5F1F4F23E047E00E943E
:10050000790BBC01C7010E9454022C960FB6F894D7
:10051000DEBF0FBECDBFDF91CF911F910F91FF9036
:10052000EF9008950E94000808950E943B080895E6
:10053000CF92DF92EF92FF920F931F93CF93DF93AF
:10054000EC01C98CDA8CEB8CFC8C6D897E898F89EF
:10055000988DA70196010E9498098E010F561F4F92
:1005600020E030E044E353E40E940D0B23EC35EF30
:1005700048E450E40E94EB09F801608371838283B0
:10058000938369897A898B899C89A70196010E9446
:100590009809CB56DF4F20E030E044E353E40E945B
:1005A0000D0B23EC35EF48E450E40E94EB0968831F
:1005B00079838A839B83DF91CF911F910F91FF9065
:1005C000EF90DF90CF9008950F931F93CF93DF9319
:1005D000EC018C0107561F4F2AE037ED43E25CE344
:1005E00069817A818B819C810E940D0BF801608367
:1005F0007183828393838E0103561F4F2AE037ED68
:1006000043E25CE36D817E818F8198850E940D0BB2
:10061000F80160837183828393838E010F551F4F8E
:100620002AE037ED43E25CE369857A858B859C851A
:100630000E940D0BF8016083718382839383DF91A5
:10064000CF911F910F9108952F923F924F925F92F9
:100650006F927F928F929F92AF92BF92CF92DF92D2
:10066000EF92FF920F931F93CF93DF9300D000D0B0
:10067000CDB7DEB79C838B830E9498028B819C81CF
:100680000E94E402EB80FC8081E7E80EF11CEB8124
:10069000FC81E756FF4F2081318142815381F70170
:1006A00060817181828193810E942509262E372ED7
:1006B000482E592E0B811C810B581F4FEB81FC815A
:1006C000E356FF4F2081318142815381F8016081DF
:1006D0007181828193810E942509662E772E8983FC
:1006E0009A83CB80DC80F9E7CF0ED11CEB81FC81B3
:1006F000EF55FF4F2081318142815381F6016081A6
:100700007181828193810E942509862E972EA82EC1
:10071000B92E862F992DAA2DBB2DF60180839183AA
:10072000A283B38328E431EE4AE75FE3622D732DA1
:10073000842D952D0E940D0B1B012C01EB81FC815A
:10074000EF56FF4F2AE037ED43EA5CE360817181A9
:10075000828193810E940D0B9B01AC01C201B1010A
:100760000E942509462E572E282E392E862F952D8C
:10077000A22DB32DF70180839183A283B38328E454
:1007800031EE4AE75FE3E981FA80662D772D8E2FFF
:100790009F2D0E940D0B6B017C01EB81FC81EB56C0
:1007A000FF4F80819181A281B381BC01CD0190581E
:1007B0002AE037ED43EA5CE30E940D0B9B01AC019C
:1007C000C701B6010E942509262F372F462F572F24
:1007D000682F792FF8014083518362837383EB8103
:1007E000FC81EB59FF4F442D552D622D732D408315
:1007F000518362837383EB81FC81E759FF4F582F4C
:10080000492F822F932FA52FB42F80839183A2830A
:10081000B383EB81FC81E359FF4F882D992DAA2DDD
:10082000BB2D80839183A283B3830F900F900F9091
:100830000F90DF91CF911F910F91FF90EF90DF907C
:10084000CF90BF90AF909F908F907F906F905F9070
:100850004F903F902F900895CF93DF93EC010E942B
:100860003C08CE010E942403DF91CF91089560E0FF
:1008700088E60E947D0885E10E94AF0880E00E9422
:10088000AF080E94A6088FE39CE90197F1F700C02A
:10089000000060E088E60E947D0886E10E94AF08C3
:1008A00088E10E94AF080E94A6088FE39CE90197A7
:1008B000F1F700C0000060E088E60E947D088EE34A
:1008C0000E94AF0881E00E94AF080E94A6088FE353
:1008D0009CE90197F1F700C0000008951F93CF93A2
:1008E000DF93EC0160E088E60E947D088BE10E94C6
:1008F000AF0861E088E60E947D0888830E94C108F5
:100900008D8F0E94C1088E8F0E94C1088F8F0E9418
:10091000C10888A30E94C10889A30E94C1088AA3B4
:100920000E94C1088BA30E94CC08182F8CA37D8D38
:1009300060E08E8D682B60577C4C882777FD809512
:10094000982F0E94550A20E030E04CE853E40E94C2
:10095000EB0920E030E04CE052E40E9425096D876D
:100960007E878F87988B7F8D60E088A1682B882792
:1009700077FD8095982F0E94550A20E030E046E6EA
:1009800051E40E94EB09FE01EF5AFF4F20813181B3
:10099000428153810E94240969837A838B839C83DB
:1009A00079A160E08AA1682B882777FD8095982F30
:1009B0000E94550A20E030E046E651E40E94EB092F
:1009C000FE01E35BFF4F20813181428153810E9410
:1009D00024096D837E838F8398877BA160E0612BE0
:1009E000882777FD8095982F0E94550A20E030E0F7
:1009F00046E651E40E94EB09FE01EB5AFF4F2081CD
:100A00003181428153810E94240969877A878B87CB
:100A10009C87DF91CF911F9108954F925F926F92C3
:100A20007F928F929F92AF92BF92CF92DF92EF927E
:100A3000FF920F931F93CF93DF93EC018C01075A22
:100A40001F4F29813A814B815C81F801608171815E
:100A5000828193810E942509662E772E882E992EF9
:100A6000862F972DA82DB92DF80180839183A2831D
:100A7000B3838E01035A1F4F2D813E814F815885CC
:100A8000F80160817181828193810E942509A62EDF
:100A9000B72EC82ED92E862F9B2DAC2DBD2DF8013B
:100AA00080839183A283B3838E010F591F4F2985C1
:100AB0003A854B855C85F8016081718182819381E3
:100AC0000E942509462E572EE82EF92E862F952DA9
:100AD000AE2DBF2DF80180839183A283B3838BA5B4
:100AE0009CA5ADA5BEA580329340A105B105A1F599
:100AF0008E010F5A1F4F20E030E048E454E4662D89
:100B0000772D882D992D0E94EB09F8016083718360
:100B1000828393838E01035B1F4F20E030E048E423
:100B200054E46A2D7B2D8C2D9D2D0E94EB09F8013C
:100B30006083718382839383CB5ADF4F20E030E060
:100B400048E454E4642D752D8E2D9F2D0E94EB09F1
:100B5000688379838A839B83DF91CF911F910F9163
:100B6000FF90EF90DF90CF90BF90AF909F908F90CD
:100B70007F906F905F904F900895EF92FF920F9348
:100B80001F93CF93DF93FB01D801E7018881922F58
:100B900090959823282B6FB7F89441155105A1F033
:100BA0004E0F5F1F819138E02C9300C087FF9C930C
:100BB000880F00C000C000C008F49C9300C03A95A4
:100BC00099F7E417F50771F76FBFDF91CF911F9188
:100BD0000F91FF90EF900895CF93DF9384B1806ED3
:100BE00084B93E9AE0E8F0E0808182608083808171
:100BF0008E7F8083A1E8B0E08C91817F8C938C9173
:100C000081618C93A6E8B0E08D919C9111978F6FD4
:100C10009F6311969C938E93A0E9B0E08C918260C3
:100C20008C938C918E7F8C93C1E9D0E08881817FF9
:100C30008883888181618883C6E9D0E08881998131
:100C40008F6F9F6399838883808180628083808196
:100C5000806880838081886080838C9180688C9399
:100C6000DF91CF910895FC018081918182959295C9
:100C7000907F9827807F98279E5390939900809328
:100C800098008281938182959295907F9827807FAA
:100C900098279E5390938900809388008481958142
:100CA00082959295907F9827807F98279E53909366
:100CB0008D0080938C008681978182959295907F9C
:100CC0009827807F98279E5390938B0080938A006B
:100CD0000895CF93DF93EC0180ED97E09D838C83A3
:100CE0009F838E83998388839B838A83CE010E940E
:100CF00033062FEF8DE399E4215080409040E1F7D7
:100D000000C000008AEA95E09D838C839F838E83D8
:100D1000998388839B838A83CE010E9433062FEFB9
:100D200083ED90E3215080409040E1F700C0000047
:100D30002FEF83ED90E3215080409040E1F700C019
:100D400000002FEF83ED90E3215080409040E1F7C9
:100D500000C000002FEF83ED90E3215080409040D1
:100D6000E1F700C00000DF91CF9108950F931F932A
:100D7000CF93DF93EC010CED15E01B830A830E94F7
:100D800033062FEF89E698E1215080409040E1F74B
:100D900000C000001D830C83CE010E9433062FEF9C
:100DA00089E698E1215080409040E1F700C00000C2
:100DB00019830883CE010E9433062FEF89E698E15C
:100DC000215080409040E1F700C000001F830E8357
:100DD000CE010E9433062FEF89E698E12150804032
:100DE0009040E1F700C00000DF91CF911F910F917B
:100DF00008958130910541F46F3F7F4F71F486E093
:100E000091E00E9492020895892B39F46F3F7F4F41
:100E100021F486E091E00E949502089584B58260F5
:100E200084BD8CE987BDEEE6F0E08081826080833E
:100E3000789485B5856085BD0895CF93DF93CDB750
:100E4000DEB762970FB6F894DEBF0FBECDBF81E06C
:100E500090E09A8389830E949A0B8B839C8327E07E
:100E600047E250E068E270E0CE0101960E94170967
:100E700020E030E04FEF60E070E0CE0101960E948C
:100E8000D708CE0101960E94F708CE0142960E9433
:100E90003802CE010A960E94EC05CE010A960E9405
:100EA000690686E091E00E9401082FEF30E04FEFE5
:100EB00060E070E0CE0101960E94D708CE01019655
:100EC0000E94F708CE010A960E94B60620E03FEF86
:100ED00040E060E070E0CE0101960E94D708CE01AC
:100EE00001960E94F70886E091E00E94010886E0E2
:100EF00091E00E9449082FEF30E040E060E070E0B0
:100F0000CE0101960E94D708CE0101960E94F708F3
:100F10000E940E070F2EFBE6CF2EF1E0DF2EF02D04
:100F20000F2EFFE6EF2EF1E0FF2EF02D03E711E08C
:100F3000F6014081518162817381CE0142960E9407
:100F400069026CE2CE0142960E944C02F701408198
:100F5000518162817381CE0142960E9469026CE2E6
:100F6000CE0142960E944C02F8014081518162817B
:100F70007381CE0142960E9469026AE0CE014296D8
:100F80000E944C02FFE728E381E0F15020408040BE
:100F9000E1F700C00000CCCF1F920F920FB60F9266
:100FA00011242F933F934F935F936F937F938F936E
:100FB0009F93AF93BF93EF93FF9386E091E00E94DE
:100FC0002C04FF91EF91BF91AF919F918F917F91F1
:100FD0006F915F914F913F912F910F900FBE0F90A6
:100FE0001F9018956FEF7FEF81E090E00E94F90667
:100FF00008956FEF7FEF80E090E00E94F90608957A
:101000000895CF93DF93EC016E9A0E9473088FE1ED
:101010009EE40197F1F700C00000CE010E94370462
:10102000CE010E941601FE01E75AFF4F1082118285
:1010300012821382FE01E35AFF4F10821182128244
:101040001382FE01EF59FF4F108211821282138228
:101050001BAE1CAE1DAE1EAEFE01FF9610821182AD
:1010600012821382CD5BDF4F188219821A821B8293
:10107000DF91CF9108950895CF93DF93EC01769A95
:101080000E946E04CE010E945C017698DF91CF91A0
:101090000895CF93DF93EC011BA61CA61DA61EA6E8
:1010A000CE010E943C08CE010E940D058BA59CA597
:1010B000ADA5BEA50196A11DB11D8BA79CA7ADA78F
:1010C000BEA78FE19EE40197F1F700C000004BA599
:1010D0005CA56DA57EA5413253406105710500F305
:1010E000DF91CF910895E8EBF0E08CE08083908170
:1010F00081E09B3008F480E0089594EA9093BC006E
:10110000ECEBF0E090819923ECF79091B900987F97
:10111000983011F09031B1F4880F680F6093BB00E4
:1011200084E88093BC00ECEBF0E080818823ECF74E
:101130009091B900987F983139F081E0903429F08E
:1011400080E0089580E0089581E0089584E9809327
:10115000BC00ECEBF0E080818823ECF308958093F1
:10116000BB0084E88093BC00ECEBF0E08081882336
:10117000ECF79091B900987F81E0983209F080E017
:10118000089584EC8093BC00ECEBF0E08081882330
:10119000ECF78091BB00089584E88093BC00ECEBF1
:1011A000F0E080818823ECF78091BB000895FC017A
:1011B0008081918168177907C0F4CB01880F991F4E
:1011C000680F791FA281B381A60FB71F2C93A2814C
:1011D000B381A60FB71F11963C9382819381FC01C6
:1011E000E60FF71F428380E0089581E00895EF92B3
:1011F000FF920F931F93FC01A681B7818C918068A9
:101200008C93E680F7800481158180819181AC0107
:10121000440F551F480F591F628173812085CF01EC
:101220000E94BD051F910F91FF90EF900895FC0162
:1012300081E090E001C0880F2A95EAF780877583E6
:1012400064835783468308955058BB27AA270ED03E
:10125000A3C194D130F099D120F031F49F3F11F423
:101260001EF464C10EF4E095E7FB5AC1E92FA5D145
:1012700080F3BA17620773078407950718F071F4B3
:101280009EF5BDC10EF4E0950B2EBA2FA02D0B01DB
:10129000B90190010C01CA01A0011124FF27591BBB
:1012A00099F0593F50F4503E68F11A16F040A22FC1
:1012B000232F342F4427585FF3CF46953795279532
:1012C000A795F0405395C9F77EF41F16BA0B620B31
:1012D000730B840BBAF09150A1F0FF0FBB1F661F78
:1012E000771F881FC2F70EC0BA0F621F731F841FBB
:1012F00048F4879577956795B795F7959E3F08F0E1
:10130000B3CF9395880F08F09927EE0F979587959F
:10131000089534D158F080E891E009F49EEF35D17A
:1013200028F040E851E059F45EEF09C0FFC067C102
:10133000E92FE07842D168F3092E052AC1F3261778
:1013400037074807590738F00E2E07F8E02569F0EF
:10135000E025E0640AC0EF6307F8009407FADB01B8
:10136000B9019D01DC01CA01AD01EF9343D014D155
:101370000AD05F91552331F02BED3FE049E450FD59
:1013800049EC63CF0895DF93DD27B92FBF7740E89D
:101390005FE31616170648075B0710F4D92F36D1FE
:1013A0009F938F937F936F939BD1ECEAF0E0C1D032
:1013B000F3D02F913F914F915F913BD1DD2349F0C5
:1013C0009058A2EA2AED3FE049EC5FE3D0785D2730
:1013D0004DDFDF91E1C00CD0DFC0D7D040F0CED0E0
:1013E00030F021F45F3F19F09BC0511109C19EC03C
:1013F000E4D098F39923C9F35523B1F3951B550B0A
:10140000BB27AA2762177307840738F09F5F5F4FD7
:10141000220F331F441FAA1FA9F333D00E2E3AF018
:10142000E0E830D091505040E695001CCAF729D032
:10143000FE2F27D0660F771F881FBB1F2617370781
:101440004807AB07B0E809F0BB0B802DBF01FF27B1
:1014500093585F4F2AF09E3F510568F061C0D0C09D
:101460005F3FECF3983EDCF3869577956795B795EB
:10147000F7959F5FC9F7880F911D9695879597F906
:101480000895E1E0660F771F881FBB1F621773077F
:101490008407BA0720F0621B730B840BBA0BEE1F94
:1014A00088F7E0950895E89409C097FB3EF490957D
:1014B0008095709561957F4F8F4F9F4F9923A9F02D
:1014C000F92F96E9BB279395F695879577956795BC
:1014D000B795F111F8CFFAF4BB0F11F460FF1BC000
:1014E0006F5F7F4F8F4F9F4F16C0882311F096E993
:1014F00011C0772321F09EE8872F762F05C0662341
:1015000071F096E8862F70E060E02AF09A95660FF9
:10151000771F881FDAF7880F9695879597F90895B2
:1015200097F99F6780E870E060E008959FEF80EC96
:101530000895DF93CF931F930F93FF92EF92DF9263
:101540007B018C01689405C0DA2EEF0172D0FE0198
:10155000E894A5912591359145915591AEF3EF0110
:1015600085DEFE019701A801DA9479F7DF90EF900C
:10157000FF900F911F91CF91DF91089500240A945D
:101580001616170618060906089500240A9412165E
:101590001306140605060895092E0394000C11F491
:1015A000882352F0BB0F40F4BF2B11F460FF04C03E
:1015B0006F5F7F4F8F4F9F4F089557FD9058440F97
:1015C000551F59F05F3F71F04795880F97FB991FA2
:1015D00061F09F3F79F0879508951216130614065F
:1015E000551FF2CF4695F1DF08C0161617061806EC
:1015F000991FF1CF86957105610508940895E894C7
:10160000BB2766277727CB0197F908959B01AC018B
:1016100060E070E080E89FE3DECE0BD0BDCFAEDFB0
:1016200028F0B3DF18F0952309F07ACF7FCF11248B
:10163000E7CFC3DFA0F3959FD1F3950F50E0551F7F
:10164000629FF001729FBB27F00DB11D639FAA2717
:10165000F00DB11DAA1F649F6627B00DA11D661F66
:10166000829F2227B00DA11D621F739FB00DA11D87
:10167000621F839FA00D611D221F749F3327A00D41
:10168000611D231F849F600D211D822F762F6A2FDD
:1016900011249F5750408AF0E1F088234AF0EE0F62
:1016A000FF1FBB1F661F771F881F91505040A9F76F
:1016B0009E3F510570F034CFA3CF5F3FECF3983ECF
:1016C000DCF3869577956795B795F795E7959F5FD6
:1016D000C1F7FE2B880F911D9695879597F9089570
:1016E0009B01AC019ACFEE0FFF1F0590F491E02D06
:1016F0000994EF920F931F93CF93C02F47FF02C01F
:1017000034E101C034E0E42FFF27E7FDF095F7FF57
:1017100003C0F195E195F109E32E022F2E2F4C2FF6
:10172000512F0E94D20C8C2F912FCF911F910F918E
:10173000EF9008950F931F93CF93DF93823091051D
:1017400010F482E090E0E091AD01F091AE0120E074
:1017500030E0C0E0D0E023C04081518148175907F4
:10176000A8F04817590761F482819381209719F0F6
:101770009B838A832EC09093AE018093AD0129C0D4
:101780002115310529F04217530710F0A90102C0B5
:10179000BE01DF0102811381EF019A01F801309748
:1017A000D9F62115310509F1281B390B24303105F3
:1017B00090F412968D919C9113976115710521F00B
:1017C000FB019383828304C09093AE018093AD01AB
:1017D000FD01329644C0FD01E20FF31F8193919306
:1017E000225031092D933C933AC02091AB013091A6
:1017F000AC01232B41F4209102013091030130937D
:10180000AC012093AB012091000130910101211521
:10181000310541F42DB73EB74091040150910501C7
:10182000241B350BE091AB01F091AC01E217F307FB
:10183000A0F42E1B3F0B2817390778F0AC014E5F40
:101840005F4F2417350748F04E0F5F1F5093AC01D0
:101850004093AB018193919302C0E0E0F0E0CF01AF
:10186000DF91CF911F910F910895EF92FF920F9307
:101870001F93CF93DF93009709F48FC0DC01129779
:1018800013961C921E921297E090AD01F090AE015B
:10189000E114F10489F42D913C911197280F391F1F
:1018A0008091AB019091AC018217930789F5B093B9
:1018B000AC01A093AB0171C0E70120E030E001C0B2
:1018C000EA01CA17DB0738F44A815B819E014115A2
:1018D0005105B1F722C0BC0162507109FB01D383ED
:1018E000C28300811181AC01400F511F4C175D076D
:1018F00061F448815981400F511F4E5F5F4F518302
:1019000040834A815B81538342832115310529F449
:10191000B093AE01A093AD0140C0F901B383A2839F
:10192000E90169917991C60FD71FAC17BD0779F40A
:10193000DC015E914E91460F571F4E5F5F4F518302
:10194000408312968D919C91139793838283A0E09C
:10195000B0E002C0D7017C01F7018281938100973A
:10196000C9F7C701029620813181820F931F209110
:10197000AB013091AC012817390779F4109729F49D
:101980001092AE011092AD0104C013961C921E92EB
:101990001297F092AC01E092AB01CDB7DEB7E6E072
:1019A0000C94330F6F927F929F92AF92BF92CF921F
:1019B000DF92EF92FF920F931F93CF93DF93CDB7F8
:1019C000DEB729970FB6F894DEBF0FBECDBF6A0110
:1019D000B22E102F0C3318F4F02EF39402C05CE3F7
:1019E000F52E0F2D27E0AE014F5F5F4F0E944F0E87
:1019F0007981272F2970213031F0E1FC06C0E0FE0B
:101A000006C060E205C06DE203C06BE201C060E0A9
:101A100073FF3DC0662311F084E001C083E08B15A5
:101A200010F4B81A01C0B12CE4FC0BC08B2DF601E8
:101A300090E202C0919381508111FCCFCB0CD11C5C
:101A4000B12C662319F0D6016D936D01E2FE0AC038
:101A50008EE4F601808391E491838283F3E0CF0EDC
:101A6000D11C0CC08EE6D6018C9391E611969C9306
:101A7000119712968C93B3E0CB0ED11C8B2DF601EF
:101A800090E202C0919381508111FCCF40C072FF5F
:101A900045C0662311F084E001C083E08B1510F48B
:101AA000B81A01C0B12CE4FC0BC08B2DF60190E2FA
:101AB00002C0919381508111FCCFCB0CD11CB12C71
:101AC000662319F0F60161936F01E2FE0EC089E40E
:101AD000D6018C938EE411968C93119786E412961E
:101AE0008C93B3E0CB0ED11C0AC089E6F60180834B
:101AF0008EE6818386E68283F3E0CF0ED11C8B2DA8
:101B0000F60190E202C0919381508111FCCFF60161
:101B1000EB0DF11D10822EEF3FEFACC0A1E0611183
:101B200001C0A0E04A2F50E01816190624F49C01C9
:101B30002F5F3F4F02C021E030E0240F351F1123FB
:101B400029F0412F50E04F5F5F4F02C040E050E06E
:101B5000420F531F2B2D30E04217530714F4B41AD1
:101B600001C0B12C3E2D3071E4FC0DC0E3FC0BC074
:101B70002B2DF60140E202C0419321502111FCCFF0
:101B8000CB0CD11CB12CAA2319F0D6016D936D0199
:101B900031110BC02B2DF60130E302C031932150DF
:101BA0002111FCCFCB0CD11CB12CF80E0A8140E1E5
:101BB000A42EA72274FF03C0013309F4FA941F1462
:101BC0002CF42F2D293018F028E001C021E0AC01C1
:101BD00097FF02C040E050E060E070E03EE2932EEC
:101BE000FC01E21BF1099F01DC01A41BB50BFE0106
:101BF0003196EA0FFB1FA12FB0E0662477246A1A02
:101C00007B0A4F3F1FEF510719F4D6019D926D01DA
:101C10008417950754F0241735073CF47F01E60E2E
:101C2000F71ED70111961C9101C010E341505109D4
:101C30006F5F7F4F4615570524F0D6011D936D0148
:101C4000E0CF4817590739F4063320F4053319F467
:101C5000A11001C011E3F60111938B2DDF0190E279
:101C600002C09D9381508111FCCFEB0DF11D1082BC
:101C700020E030E0C90129960FB6F894DEBF0FBE10
:101C8000CDBFDF91CF911F910F91FF90EF90DF902B
:101C9000CF90BF90AF909F907F906F900895283025
:101CA00008F027E03327DA01990F311D87FD916095
:101CB00000966105710539F432602E5F3D9330E383
:101CC0002A95E1F708959F3F30F08038710561054E
:101CD00009F03C5F3C5F3D93913008F08068911DB6
:101CE000DF93CF931F930F93FF92EF92192F987F5B
:101CF0009695E92F96959695E90FFF27ED5CFE4F97
:101D000099273327EE24FF24A701E70105900894C3
:101D1000079428F4360FE71EF81E491F511D660F61
:101D2000771F881F991F0694A1F70590079428F440
:101D3000E70EF81E491F561FC11D770F881F991FF8
:101D4000661F0694A1F70590079428F4F80E491F22
:101D5000561FC71FD11D880F991F661F771F069436
:101D6000A1F70590079420F4490F561FC71FD81FED
:101D7000990F661F771F881F0694A9F78491109505
:101D8000177041F0D695C79557954795F794E79406
:101D90001A95C1F7E9EDF0E0689415901591359129
:101DA0006591959105907FE27395E118F10A430BD7
:101DB000560BC90BD009C0F7E10CF11E431F561F8B
:101DC000C91FD01D7EF4703311F48A95E6CFE894D4
:101DD000015030F0080F0AF40027021708F4202FF2
:101DE0002395022F7A3328F079E37D932A95E9F73A
:101DF00010C07D932A9589F6069497956795379537
:101E000017951794E118F10A430B560BC90BD0092B
:101E100098F023957E9173957A3308F070E37C9364
:101E20002013B8F77E9170617D9330F0839571E354
:101E30007D9370E32A95E1F71124EF90FF900F91C5
:101E40001F91CF91DF91992787FD909508952A885A
:101E5000398848885F846E847D848C849B84AA84BE
:101E6000B984C884DF80EE80FD800C811B81AA814B
:101E7000B981CE0FD11D0FB6F894DEBF0FBECDBF16
:101E8000ED01089511E0C6EDD1E004C0FE010E940D
:0E1E9000750B2296C83DD107C9F7F894FFCF15
:061E9E000000AF0120006E
:00000001FF
