:100000000C94D3000C94E8000C94E8000C94E800E5
:100010000C94E8000C94E8000C94E8000C94E800C0
:100020000C94E8000C94E8000C94E8000C94E800B0
:100030000C94E8000C94E8000C94E8000C94E800A0
:100040000C94E8000C94E8000C94E8000C94E80090
:100050000C94E8000C94E8000C94E8000C94E80080
:100060000C94E8000C94E8000C94E8000C94E80070
:100070000C94E8000C94E8000C94E8000C94E80060
:100080000C94E8000C94E8000C94E8000C94E80050
:100090000C94E8000C94E8000C94E8000C94E80040
:1000A0000C94E8000C94E8000C94E80000407A10EE
:1000B000F35A00A0724E18090010A5D4E80000E819
:1000C0007648170000E40B54020000CA9A3B000077
:1000D00000E1F505000080969800000040420F0006
:1000E0000000A08601000000102700000000E803C7
:1000F000000000006400000000000A000000000092
:100100000100000000002C76D888DC674F0823DF50
:10011000C1DFAE59E1B1B796E5E3E453C63AE65123
:10012000997696E8E6C28426EB898C9B62ED407C4A
:100130006FFCEFBC9C9F40F2BAA56FA5F490055AE6
:100140002AF75C936B6CF9676DC11BFCE0E40D470B
:10015000FEF520E6B500D0ED902E0300943577052E
:100160000080841E080000204E0A000000C80C33E6
:100170003333330F986E12831141EF8D2114893B75
:10018000E65516CFFEE6DB18D1844B381BF77C1DF5
:10019000901DA4BBE424203284725E228100C9F148
:1001A00024ECA1E53D2711241FBECFEFDAE0DEBF2E
:1001B000CDBF11E0A0E0B1E0E8E6F5E102C00590B6
:1001C0000D92AC33B107D9F70E940E040C94B20A19
:1001D0000C94000060E083E50E94240681E30E9405
:1001E00056068BE00E9456068FE39CE90197F1F7D3
:1001F00000C0000060E083E50E9424068DE20E94BA
:10020000560680E00E9456068FE39CE90197F1F7BD
:1002100000C0000060E083E50E9424068DE20E9499
:10022000560686E10E9456068FE39CE90197F1F796
:1002300000C0000060E083E50E9424068DE20E9479
:10024000560688E00E9456069FEF23EF81E091500A
:1002500020408040E1F700C000000E944D06089554
:10026000CF92DF92EF92FF920F931F93CF93DF9382
:10027000EC0160E083E50E94240682E30E945606BA
:1002800061E083E50E9424060E9473066E0197E4F4
:10029000C90ED11CF6018083118260E083E50E94C3
:1002A000240683E30E94560661E083E50E9424064B
:1002B0000E947306382F20E0F60180819181280F7B
:1002C000391F3183208360E083E50E94240684E3A4
:1002D0000E94560661E083E50E9424060E94730690
:1002E0007E01F9E4EF0EF11CF7018083118260E0DA
:1002F00083E50E94240685E30E94560661E083E5BB
:100300000E9424060E947306382F20E0F7018081A6
:100310009181280F391F3183208360E083E50E949B
:10032000240686E30E94560661E083E50E942406C7
:100330000E9473068E01055B1F4FF80180831182B6
:1003400060E083E50E94240687E30E94560661E090
:1003500083E50E9424060E947306382F20E0F801EE
:1003600080819181280F391F318320830E944D069F
:10037000F60160817181882777FD8095982F0E9412
:100380004D0726E730EE4CE15DE30E94D9072FA52B
:1003900038A949A95AA90E947E06698B7A8B8B8B52
:1003A0009C8BF70160817181882777FD8095982F5C
:1003B0000E944D0726E730EE4CE15DE30E94D9072D
:1003C0002BA93CA94DA95EA90E947E066D8B7E8B50
:1003D0008F8B988FF80160817181882777FD8095D8
:1003E000982F0E944D0726E730EE4CE15DE30E9416
:1003F000D9072FA938AD49AD5AAD0E947E06698F45
:100400007A8F8B8F9C8FDF91CF911F910F91FF90EF
:10041000EF90DF90CF90089588E090E09093CD002A
:100420008093CC00E9ECF0E080818860808380815B
:1004300080618083EAECF0E080818E6080830895A3
:10044000E8ECF0E0808185FFFDCF6093CE00089559
:100450000F931F93CF93DF938C01EB016881662389
:1004600039F02196C8010E94200269916111FACFEA
:10047000DF91CF911F910F910895EF92FF920F930B
:100480001F93CF93DF93CDB7DEB72C970FB6F894B9
:10049000DEBF0FBECDBF7C01CB01BA018E010F5F65
:1004A0001F4F23E047E00E943C08BC01C7010E94A7
:1004B00028022C960FB6F894DEBF0FBECDBFDF9199
:1004C000CF911F910F91FF90EF900895CF93DF93FD
:1004D000EC0160E088E60E9424068EE30E94560646
:1004E000888380E80E9456060E944D068FE39CE9AF
:1004F0000197F1F700C0000060E088E60E94240642
:1005000086E10E9456068EE20E9456060E944D0623
:100510008FE39CE90197F1F700C0000060E088E6F6
:100520000E9424068EE30E94560683E00E9456062F
:100530000E944D068FE39CE90197F1F700C000008F
:10054000DF91CF9108951F93CF93DF93EC0160E08B
:1005500088E60E9424068BE10E94560661E088E648
:100560000E94240688830E9468068D8F0E94680678
:100570008E8F0E9468068F8F0E94680688A30E9453
:10058000680689A30E9468068AA30E9468068BA356
:100590000E947306182F8CA37D8D60E08E8D682BD2
:1005A00060577C4C882777FD8095982F0E944D07D7
:1005B00020E030E04CE853E40E94E30620E030E025
:1005C0004CE052E40E947F066D877E878F87988B70
:1005D0007F8D60E088A1682B882777FD8095982F14
:1005E0000E944D0720E030E046E651E40E94E30619
:1005F000FE01EF5AFF4F20813181428153810E94D9
:100600007E0669837A838B839C8379A160E08AA1CB
:10061000682B882777FD8095982F0E944D0720E052
:1006200030E046E651E40E94E306FE01E35BFF4F43
:1006300020813181428153810E947E066D837E83B9
:100640008F8398877BA160E0612B882777FD809559
:10065000982F0E944D0720E030E046E651E40E94CA
:10066000E306FE01EB5AFF4F208131814281538125
:100670000E947E0669877A878B879C87DF91CF915E
:100680001F910895FC018081918182959295907FC0
:100690009827807F98279E53909399008093980085
:1006A0008281938182959295907F9827807F982769
:1006B0009E539093890080938800848195818295D0
:1006C0009295907F9827807F98279E5390938D00D6
:1006D00080938C008681978182959295907F982750
:1006E000807F98279E5390938B0080938A00089573
:1006F000CF93DF93EC0180ED97E09D838C839F8304
:100700008E83998388839B838A83CE010E944203D0
:100710002FEF8DE399E4215080409040E1F700C035
:1007200000008AEA95E09D838C839F838E83998362
:1007300088839B838A83CE010E9442032FEF83ED3F
:1007400090E3215080409040E1F700C000002FEF7F
:1007500083ED90E3215080409040E1F700C000001D
:100760002FEF83ED90E3215080409040E1F700C0EF
:1007700000002FEF83ED90E3215080409040E1F79F
:1007800000C00000DF91CF910895CF93DF9324B193
:10079000206E24B93E9AE0E8F0E0208122602083B8
:1007A00020812E7F2083A1E8B0E02C91217F2C9323
:1007B0002C9121612C93A6E8B0E02D913C911197EA
:1007C0002F6F3F6311963C932E93A0E9B0E02C91DC
:1007D00022602C932C912E7F2C93C1E9D0E02881AC
:1007E000217F2883288121612883C6E9D0E02881E0
:1007F00039812F6F3F6339832883208120622083D2
:100800002081206820832081286020832C9120680B
:100810002C930E947803DF91CF910895CF93DF93BB
:10082000CDB7DEB7CE56D1090FB6F894DEBF0FBEF6
:10083000CDBFCE0182599F4F0E940C02CE018A5932
:100840009F4F0E94C503CE0101960E94BB05CE01B9
:1008500001960E94FE04CE0101960E94FE0460E013
:1008600071E0CE0182599F4F0E9428024E855F851C
:1008700068897989CE0182599F4F0E943D026BE0C1
:1008800071E0CE0182599F4F0E9428026FE071E013
:10089000CE0182599F4F0E9428024A895B896C8948
:1008A0007D89CE0182599F4F0E943D026AE0CE01B0
:1008B00082599F4F0E94200266E171E0CE01825969
:1008C0009F4F0E9428024E895F89688D798DCE01E5
:1008D00082599F4F0E943D026AE0CE0182599F4F8C
:1008E0000E9420026DE171E0CE0182599F4F0E946B
:1008F00028024A8D5B8D6C8D7D8DCE0182599F4F74
:100900000E943D026AE0CE0182599F4F0E94200260
:1009100064E271E0CE0182599F4F0E9428024A8111
:100920005B816C817D81CE0182599F4F0E943D0287
:100930006AE0CE0182599F4F0E9420026CE271E072
:10094000CE0182599F4F0E9428024E815F816885A7
:100950007985CE0182599F4F0E943D026AE0CE0107
:1009600082599F4F0E94200264E371E0CE018259B8
:100970009F4F0E9428024A855B856C857D85CE014C
:1009800082599F4F0E943D026AE0CE0182599F4FDB
:100990000E9420026AE0CE0182599F4F0E942002ED
:1009A0006AE0CE0182599F4F0E9420026AE0CE0188
:1009B00082599F4F0E9420026AE0CE0182599F4FC8
:1009C0000E9420026AE0CE0182599F4F0E942002BD
:1009D0006AE0CE0182599F4F0E9420026AE0CE0158
:1009E00082599F4F0E9420022FEF87EE93E0215003
:1009F00080409040E1F700C000002DCFCF93DF93FF
:100A0000EC01769A0E94A302CE010E9430017698F2
:100A1000DF91CF9108954F925F926F927F928F9264
:100A20009F92AF92BF92CF92DF92EF92FF920F937D
:100A30001F93CF93DF93EC018C01075A1F4F29813D
:100A40003A814B815C81F80160817181828193815F
:100A50000E947F06662E772E882E992E862F972D40
:100A6000A82DB92DF80180839183A283B3838E01D1
:100A7000035A1F4F2D813E814F815885F8016081B7
:100A80007181828193810E947F06A62EB72EC82E87
:100A9000D92E862F9B2DAC2DBD2DF80180839183FF
:100AA000A283B3838E010F591F4F29853A854B8549
:100AB0005C85F80160817181828193810E947F064B
:100AC000462E572EE82EF92E862F952DAE2DBF2DB2
:100AD000F80180839183A283B3838BA59CA5ADA5E8
:100AE000BEA580329340A105B105A1F58E010F5A34
:100AF0001F4F20E030E048E454E4662D772D882D28
:100B0000992D0E94E306F8016083718382839383A9
:100B10008E01035B1F4F20E030E048E454E46A2D6F
:100B20007B2D8C2D9D2D0E94E306F801608371833F
:100B300082839383CB5ADF4F20E030E048E454E4D3
:100B4000642D752D8E2D9F2D0E94E3066883798379
:100B50008A839B83DF91CF911F910F91FF90EF903C
:100B6000DF90CF90BF90AF909F908F907F906F90CD
:100B70005F904F900895CF93DF93EC016E9A0E949F
:100B80001A068FE19EE40197F1F700C00000CE0144
:100B90000E946602CE010E94EA00FE01E75AFF4F62
:100BA0001082118212821382FE01E35AFF4F1082DB
:100BB000118212821382FE01EF59FF4F10821182BF
:100BC000128213821BAE1CAE1DAE1EAEFE01FF963E
:100BD0001082118212821382FE01ED5BFF4F1082A0
:100BE0001182128213821BA61CA61DA61EA6CE0170
:100BF0000E94FE04CE010E940B058BA59CA5ADA50D
:100C0000BEA50196A11DB11D8BA79CA7ADA7BEA730
:100C10008FE19EE40197F1F700C000004BA55CA5B1
:100C20006DA57EA5413253406105710500F3DF914A
:100C3000CF910895E8EBF0E088E48083908181E033
:100C40009B3008F480E0089594EA9093BC00ECEBAC
:100C5000F0E090819923ECF79091B900987F98305B
:100C600011F09031B1F4880F680F6093BB0084E8F5
:100C70008093BC00ECEBF0E080818823ECF790914E
:100C8000B900987F983139F081E0903429F080E004
:100C9000089580E0089581E0089584E98093BC0080
:100CA000ECEBF0E080818823ECF308958093BB00A7
:100CB00084E88093BC00ECEBF0E080818823ECF7C3
:100CC0009091B900987F81E0983209F080E0089512
:100CD00084EC8093BC00ECEBF0E080818823ECF79F
:100CE0008091BB00089584E88093BC00ECEBF0E0B9
:100CF00080818823ECF78091BB0008955058BB2772
:100D0000AA270ED01CC10DD130F012D120F031F441
:100D10009F3F11F41EF402C10EF4E095E7FBF8C00A
:100D2000E92F1ED180F3BA1762077307840795076E
:100D300018F071F49EF536C10EF4E0950B2EBA2F23
:100D4000A02D0B01B90190010C01CA01A0011124D1
:100D5000FF27591B99F0593F50F4503E68F11A167D
:100D6000F040A22F232F342F4427585FF3CF46950E
:100D700037952795A795F0405395C9F77EF41F1630
:100D8000BA0B620B730B840BBAF09150A1F0FF0FFA
:100D9000BB1F661F771F881FC2F70EC0BA0F621FE6
:100DA000731F841F48F4879577956795B795F795D6
:100DB0009E3F08F0B3CF9395880F08F09927EE0F68
:100DC0009795879508950CD0BAC0B2D040F0A9D0BD
:100DD00030F021F45F3F19F09BC05111E4C09EC078
:100DE000BFD098F39923C9F35523B1F3951B550B45
:100DF000BB27AA2762177307840738F09F5F5F4FEE
:100E0000220F331F441FAA1FA9F333D00E2E3AF02E
:100E1000E0E830D091505040E695001CCAF729D048
:100E2000FE2F27D0660F771F881FBB1F2617370797
:100E30004807AB07B0E809F0BB0B802DBF01FF27C7
:100E400093585F4F2AF09E3F510568F061C0ABC0D8
:100E50005F3FECF3983EDCF3869577956795B79501
:100E6000F7959F5FC9F7880F911D9695879597F91C
:100E70000895E1E0660F771F881FBB1F6217730795
:100E80008407BA0720F0621B730B840BBA0BEE1FAA
:100E900088F7E0950895E89409C097FB3EF4909593
:100EA0008095709561957F4F8F4F9F4F9923A9F043
:100EB000F92F96E9BB279395F695879577956795D2
:100EC000B795F111F8CFFAF4BB0F11F460FF1BC016
:100ED0006F5F7F4F8F4F9F4F16C0882311F096E9A9
:100EE00011C0772321F09EE8872F762F05C0662357
:100EF00071F096E8862F70E060E02AF09A95660F10
:100F0000771F881FDAF7880F9695879597F90895C8
:100F100097F99F6780E870E060E008959FEF80ECAC
:100F2000089500240A94161617061806090608954F
:100F300000240A9412161306140605060895092EB5
:100F40000394000C11F4882352F0BB0F40F4BF2B24
:100F500011F460FF04C06F5F7F4F8F4F9F4F089564
:100F600057FD9058440F551F59F05F3F71F047955A
:100F7000880F97FB991F61F09F3F79F0879508953F
:100F8000121613061406551FF2CF4695F1DF08C05E
:100F9000161617061806991FF1CF8695710561057B
:100FA00008940895E894BB2766277727CB0197F923
:100FB00008950BD0C4CFB5DF28F0BADF18F0952321
:100FC00009F0A6CFABCF1124EECFCADFA0F3959FD7
:100FD000D1F3950F50E0551F629FF001729FBB2720
:100FE000F00DB11D639FAA27F00DB11DAA1F649FCC
:100FF0006627B00DA11D661F829F2227B00DA11D7F
:10100000621F739FB00DA11D621F839FA00D611D04
:10101000221F749F3327A00D611D231F849F600D25
:10102000211D822F762F6A2F11249F5750408AF05E
:10103000E1F088234AF0EE0FFF1FBB1F661F771FEA
:10104000881F91505040A9F79E3F510570F060CF26
:10105000AACF5F3FECF3983EDCF3869577956795D2
:10106000B795F795E7959F5FC1F7FE2B880F911D08
:101070009695879597F90895EF920F931F93CF93C5
:10108000C02F47FF02C034E101C034E0E42FFF2746
:10109000E7FDF095F7FF03C0F195E195F109E32E27
:1010A000022F2E2F4C2F512F0E945D088C2F912F35
:1010B000CF911F910F91EF9008956F927F929F9221
:1010C000AF92BF92CF92DF92EF92FF920F931F9356
:1010D000CF93DF93CDB7DEB729970FB6F894DEBF75
:1010E0000FBECDBF6A01B22E102F0C3318F4F02EB4
:1010F000F39402C05CE3F52E0F2D27E0AE014F5FA5
:101100005F4F0E94DA097981272F2970213031F051
:10111000E1FC06C0E0FE06C060E205C06DE203C06F
:101120006BE201C060E073FF3DC0662311F084E014
:1011300001C083E08B1510F4B81A01C0B12CE4FC97
:101140000BC08B2DF60190E202C09193815081116A
:10115000FCCFCB0CD11CB12C662319F0D6016D93BA
:101160006D01E2FE0AC08EE4F601808391E4918372
:101170008283F3E0CF0ED11C0CC08EE6D6018C9397
:1011800091E611969C93119712968C93B3E0CB0E37
:10119000D11C8B2DF60190E202C0919381508111F8
:1011A000FCCF40C072FF45C0662311F084E001C04F
:1011B00083E08B1510F4B81A01C0B12CE4FC0BC00D
:1011C0008B2DF60190E202C0919381508111FCCFEA
:1011D000CB0CD11CB12C662319F0F60161936F0181
:1011E000E2FE0EC089E4D6018C938EE411968C93B6
:1011F000119786E412968C93B3E0CB0ED11C0AC0F3
:1012000089E6F60180838EE6818386E68283F3E0B9
:10121000CF0ED11C8B2DF60190E202C0919381502C
:101220008111FCCFF601EB0DF11D10822EEF3FEF87
:10123000ACC0A1E0611101C0A0E04A2F50E0181637
:10124000190624F49C012F5F3F4F02C021E030E0DB
:10125000240F351F112329F0412F50E04F5F5F4FBE
:1012600002C040E050E0420F531F2B2D30E04217E8
:10127000530714F4B41A01C0B12C3E2D3071E4FCB4
:101280000DC0E3FC0BC02B2DF60140E202C04193E0
:1012900021502111FCCFCB0CD11CB12CAA2319F069
:1012A000D6016D936D0131110BC02B2DF60130E38A
:1012B00002C0319321502111FCCFCB0CD11CB12C99
:1012C000F80E0A8140E1A42EA72274FF03C0013367
:1012D00009F4FA941F142CF42F2D293018F028E06B
:1012E00001C021E0AC0197FF02C040E050E060E0A7
:1012F00070E03EE2932EFC01E21BF1099F01DC014C
:10130000A41BB50BFE013196EA0FFB1FA12FB0E025
:10131000662477246A1A7B0A4F3F1FEF510719F49E
:10132000D6019D926D018417950754F02417350757
:101330003CF47F01E60EF71ED70111961C9101C007
:1013400010E3415051096F5F7F4F4615570524F058
:10135000D6011D936D01E0CF4817590739F40633C4
:1013600020F4053319F4A11001C011E3F601119323
:101370008B2DDF0190E202C09D9381508111FCCF43
:10138000EB0DF11D108220E030E0C90129960FB667
:10139000F894DEBF0FBECDBFDF91CF911F910F91AB
:1013A000FF90EF90DF90CF90BF90AF909F907F9095
:1013B0006F900895283008F027E03327DA01990F5D
:1013C000311D87FD916000966105710539F4326029
:1013D0002E5F3D9330E32A95E1F708959F3F30F06B
:1013E00080387105610509F03C5F3C5F3D939130A9
:1013F00008F08068911DDF93CF931F930F93FF92A6
:10140000EF92192F987F9695E92F96959695E90F6B
:10141000FF27EA5FFE4F99273327EE24FF24A70119
:10142000E70105900894079428F4360FE71EF81E8C
:10143000491F511D660F771F881F991F0694A1F73A
:101440000590079428F4E70EF81E491F561FC11D8A
:10145000770F881F991F661F0694A1F705900794C0
:1014600028F4F80E491F561FC71FD11D880F991F5A
:10147000661F771F0694A1F70590079420F4490F83
:10148000561FC71FD81F990F661F771F881F069406
:10149000A9F784911095177041F0D695C795579587
:1014A0004795F794E7941A95C1F7ECEAF0E0689451
:1014B0001590159135916591959105907FE2739501
:1014C000E118F10A430B560BC90BD009C0F7E10C28
:1014D000F11E431F561FC91FD01D7EF4703311F437
:1014E0008A95E6CFE894015030F0080F0AF40027FF
:1014F000021708F4202F2395022F7A3328F079E37E
:101500007D932A95E9F710C07D932A9589F6069474
:1015100097956795379517951794E118F10A430B3E
:10152000560BC90BD00998F023957E9173957A33A9
:1015300008F070E37C932013B8F77E9170617D937F
:1015400030F0839571E37D9370E32A95E1F71124E0
:10155000EF90FF900F911F91CF91DF91992787FD19
:0815600090950895F894FFCF67
:101568004779726F2054656D703A00B0430A0041A4
:10157800434320583A0041434320593A00414343EA
:10158800205A3A004779726F20583A004779726FAB
:0C15980020593A004779726F205A3A003F
:00000001FF
