:100000000C94EC000C9414010C9414010C94140145
:100010000C9414010C9414010C9414010C9414010C
:100020000C9414010C9414010C9414010C941401FC
:100030000C9414010C9414010C9414010C941401EC
:100040000C9414010C9414010C9414010C941401DC
:100050000C9414010C94140B0C9414010C941401C2
:100060000C9414010C9414010C9414010C941401BC
:100070000C9414010C9414010C9414010C941401AC
:100080000C9414010C9414010C9414010C9414019C
:100090000C9414010C9414010C9414010C9414018C
:1000A0000C9414010C9414010C941401084AD73BCD
:1000B0003BCE016E84BCBFFDC12F3D6C74319ABD37
:1000C00056833DDA3D00C77F11BED9E4BB4C3E915B
:1000D0006BAAAABE000000803F00407A10F35A00CD
:1000E000A0724E18090010A5D4E80000E876481761
:1000F0000000E40B54020000CA9A3B000000E1F546
:1001000005000080969800000040420F000000A00B
:100110008601000000102700000000E80300000036
:10012000006400000000000A000000000001000060
:100130000000002C76D888DC674F0823DFC1DFAED3
:1001400059E1B1B796E5E3E453C63AE6519976969C
:10015000E8E6C28426EB898C9B62ED407C6FFCEF65
:10016000BC9C9F40F2BAA56FA5F490055A2AF75C93
:10017000936B6CF9676DC11BFCE0E40D47FEF52045
:10018000E6B500D0ED902E0300943577050080840D
:100190001E080000204E0A000000C80C3333333321
:1001A0000F986E12831141EF8D2114893BE655168D
:1001B000CFFEE6DB18D1844B381BF77C1D901DA4C5
:1001C000BBE424203284725E228100C9F124ECA1B8
:1001D000E53D27001711341111241FBECFEFDAE0DF
:1001E000DEBFCDBF11E0A6E0B1E001C01D92AC3C86
:1001F000B107E1F711E0A0E0B1E0E0E8F0E302C010
:1002000005900D92A630B107D9F711E0C6EDD1E007
:1002100004C02297FE010E943811C43DD107C9F7DE
:100220000E9414110C9433180C940000CF93DF93A8
:10023000EC010E940B0FFE01EB55FF4F1082118263
:1002400012821382FE01E755FF4F10821182128243
:100250001382C355DF4F188219821A821B82DF91E5
:10026000CF9108950C94760F2F923F924F925F9208
:100270006F927F928F929F92AF92BF92CF92DF92B6
:10028000EF92FF920F931F93CF93DF93CDB7DEB71B
:100290006A970FB6F894DEBF0FBECDBF1C010E9457
:1002A000770FD10159968D919D910D90BC91A02D04
:1002B00089839A83AB83BC83D10155968D919D919F
:1002C0000D90BC91A02D8F839887A987BA8729812B
:1002D0003A814B815C81BC01CD010E94B01120E0CC
:1002E00030E044E353E40E944D1323EC35EF48E43F
:1002F00050E40E9407126B8B7C8B8D8B9E8BF101DF
:10030000EB57FF4F6083718382839383F101818870
:100310009288A388B48829813A814B815C81C50188
:10032000B4010E94B01120E030E044E353E40E94A5
:100330004D1323EC35EF48E450E40E9407126F8B15
:10034000788F898F9A8FF101E757FF4F6083718310
:10035000828393832AE037ED43E25CE3D101119677
:100360006D917D918D919C9114970E944D132B015D
:100370003C01F101E357FF4F6083718382839383D4
:100380002AE037ED43E25CE3F10165817681878104
:1003900090850E944D136F87788B898B9A8BF10122
:1003A000EF56FF4F60837183828393832AE037ED9A
:1003B00043E25CE3D10119966D917D918D919C9101
:1003C0001C970E944D136B017C01F101EB56FF4F0E
:1003D0006083718382839383F101EB55FF4FFC8728
:1003E000EB872081318142815381C301B2010E9498
:1003F0003D116D837E833C01CB01D301EB85FC85F0
:1004000080839183A283B383C10187559F4F9E87C9
:100410008D87DC012D913D914D915C916F8578899F
:1004200089899A890E943D118B012C01CB01D2014F
:10043000ED85FE8580839183A283B383C1018355BB
:100440009F4F988B8F87DC012D913D914D915C9151
:10045000C701B6010E943D116B017C01EF85F8894F
:100460006083718382839383A5019401C501B401E4
:100470000E944D134B015C012F81388549855A85B7
:10048000CA01B9010E944D139B01AC01C501B40121
:100490000E943D114B015C0129813A814B815C81B5
:1004A000CA01B9010E944D139B01AC01C501B40101
:1004B0000E943D110E94B41320E030E040E451E47A
:1004C0000E94031287FF51C028E431EE4AE75FE340
:1004D0006D817E81C3010E944D134B015C012AE0B6
:1004E00037ED43EA5CE36B897C898D899E890E94A4
:1004F0004D139B01AC01C501B4010E943D113B01AC
:100500008F839983CB01AF81B981EB85FC85808393
:100510009183A283B38328E431EE4AE75FE3B80115
:10052000C2010E944D134B015C016F89788D898D4A
:100530009A8D90582AE037ED43EA5CE30E944D1310
:100540009B01AC01C501B4010E943D118B01AB01BF
:10055000BC01AD85BE854D935D936D937C931397E0
:100560002C016D827E826F8079805101B5E6AB0EE1
:10057000B11C4101E9E98E0E911CD4012D913D91F0
:100580004D915C916D817E81C3010E943C11F5010A
:100590006083718382839383C10187599F4F9A83BC
:1005A000898351019DE9A90EB11CD5012D913D9181
:1005B0004D915C91B801C2010E943C11E981FA8120
:1005C0006083718382839383C10183599F4F9A8390
:1005D000898391EA290E311CD1012D913D914D91D4
:1005E0005C91C701B6010E943C11E981FA816083E8
:1005F0007183828393838D819E81D301F4018083F3
:100600009183A283B383C801D201F50180839183D2
:10061000A283B383D101CD92DD92ED92FC92139728
:100620006A960FB6F894DEBF0FBECDBFDF91CF91B3
:100630001F910F91FF90EF90DF90CF90BF90AF9000
:100640009F908F907F906F905F904F903F902F90F2
:1006500008952F923F924F925F926F927F928F9266
:100660009F92AF92BF92CF92DF92EF92FF920F9341
:100670001F93CF93DF93CDB7DEB76A970FB6F89489
:10068000DEBF0FBECDBF8C010E94770FD8015996F7
:100690008D919D910D90BC91A02D89839A83AB8300
:1006A000BC83D80155968D919D910D90BC91A02D44
:1006B0008F839887A987BA8729813A814B815C818A
:1006C000BC01CD010E94B01120E030E044E353E4CE
:1006D0000E944D1323EC35EF48E450E40E940712CA
:1006E0006B8B7C8B8D8B9E8BF801EB57FF4F608360
:1006F000718382839383F80181889288A388B48868
:1007000029813A814B815C81C501B4010E94B011FD
:1007100020E030E044E353E40E944D1323EC35EF36
:1007200048E450E40E9407126F8B788F898F9A8F6C
:10073000F801E757FF4F60837183828393832AE038
:1007400037ED43E25CE3D80111966D917D918D9177
:100750009C9114970E944D132B013C01F801E35723
:10076000FF4F60837183828393832AE037ED43E2F6
:100770005CE3F80165817681878190850E944D1345
:100780006F87788B898B9A8BF801EF56FF4F6083C8
:100790007183828393832AE037ED43E25CE3D801DF
:1007A00019966D917D918D919C911C970E944D138E
:1007B0006B017C01F801EB56FF4F608371838283EC
:1007C0009383F801EB55FF4FFC87EB872081318144
:1007D00042815381C301B2010E943D113B018D83CF
:1007E0009E83CB01AD81BE81EB85FC8580839183A7
:1007F000A283B383C80187559F4F9E878D87DC01F5
:100800002D913D914D915C916F85788989899A8967
:100810000E943D111B012C01CB01D201ED85FE850B
:1008200080839183A283B383C80183559F4F988BA4
:100830008F87DC012D913D914D915C91C701B601EF
:100840000E943D116B017C01EF85F8896083718303
:1008500082839383A5019401C501B4010E944D13C5
:100860004B015C012F81388549855A85CA01B90140
:100870000E944D139B01AC01C501B4010E943D11C2
:100880004B015C0129813A814B815C81CA01B9012C
:100890000E944D139B01AC01C501B4010E943D11A2
:1008A0000E94B41320E030E040E451E40E940312BF
:1008B00087FF4DC028E431EE4AE75FE3B3018D8145
:1008C0009E810E944D134B015C012AE037ED43EA03
:1008D0005CE36B897C898D899E890E944D139B0105
:1008E000AC01C501B4010E943D113B018D839E8383
:1008F000CB01AD81BE81EB85FC8580839183A28392
:10090000B38328E431EE4AE75FE3B101C2010E94FC
:100910004D134B015C016F89788D898D9A8D9058AC
:100920002AE037ED43EA5CE30E944D139B01AC01E2
:10093000C501B4010E943D111B01AB01BC01AD8595
:10094000BE854D935D936D937C9313972C01580155
:10095000B5E6AB0EB11CF801E756FF4F208131819F
:1009600042815381B3018D819E810E943C11F5012A
:1009700060837183828393835801F9E6AF0EB11CC3
:10098000F801E356FF4F2081318142815381B1014B
:10099000C2010E943C11D5016D937D938D939C9370
:1009A00013975801BDE6AB0EB11CF801EF55FF4F90
:1009B0002081318142815381C701B6010E943C11DF
:1009C000F50160837183828393836A960FB6F894EE
:1009D000DEBF0FBECDBFDF91CF911F910F91FF9072
:1009E000EF90DF90CF90BF90AF909F908F907F90CF
:1009F0006F905F904F903F902F900895CF92DF922D
:100A0000EF92FF920F931F93CF93DF93EC01C98C6A
:100A1000DA8CEB8CFC8C6D897E898F89988DA7018F
:100A200096010E94B0118E010B571F4F20E030E05D
:100A300044E353E40E944D1323EC35EF48E450E4C3
:100A40000E940712F801608371838283938369890E
:100A50007A898B899C89A70196010E94B011C7579A
:100A6000DF4F20E030E044E353E40E944D1323ECD9
:100A700035EF48E450E40E940712688379838A8343
:100A80009B83DF91CF911F910F91FF90EF90DF90AB
:100A9000CF9008954F925F926F927F928F929F9224
:100AA000AF92BF92CF92DF92EF92FF92FC016189E9
:100AB00072898389948985889688A788B08CC18C2F
:100AC000D28CE38CF48C9B01AC010E944D132B0162
:100AD0003C01A5019401C501B4010E944D139B0185
:100AE000AC01C301B2010E943D114B015C01A701A1
:100AF0009601C701B6010E944D139B01AC01C501CF
:100B0000B4010E943D11FF90EF90DF90CF90BF9015
:100B1000AF909F908F907F906F905F904F900C94CC
:100B2000B4130F931F93CF93DF93EC018C01035702
:100B30001F4F2AE037ED43E25CE369817A818B81C4
:100B40009C810E944D13F80160837183828393839B
:100B50008E010F561F4F2AE037ED43E25CE36D81B3
:100B60007E818F8198850E944D13F8016083718387
:100B7000828393838E010B561F4F2AE037ED43E2A9
:100B80005CE369857A858B859C850E944D13F8010D
:100B90006083718382839383DF91CF911F910F9143
:100BA00008952F923F924F925F926F927F928F9211
:100BB0009F92AF92BF92CF92DF92EF92FF920F93EC
:100BC0001F93CF93DF93CDB7DEB76A970FB6F89434
:100BD000DEBF0FBECDBF8C01DC0159968D919D917A
:100BE0000D90BC91A02D89839A83AB83BC83D801DF
:100BF00055968D919D910D90BC91A02D8F839887D6
:100C0000A987BA8729813A814B815C81BC01CD01DA
:100C10000E94B01120E030E044E353E40E944D1301
:100C200023EC35EF48E450E40E9407126B8B7C8B79
:100C30008D8B9E8BF801EB57FF4F6083718382830E
:100C40009383F80181889288A388B48829813A81A6
:100C50004B815C81C501B4010E94B01120E030E0FD
:100C600044E353E40E944D1323EC35EF48E450E491
:100C70000E9407126F8B788F898F9A8FF801E75740
:100C8000FF4F60837183828393832AE037ED43E2D1
:100C90005CE3D80111966D917D918D919C91149793
:100CA0000E944D132B013C01F801E357FF4F608375
:100CB0007183828393832AE037ED43E25CE3F8019A
:100CC00065817681878190850E944D136F87788B2F
:100CD000898B9A8BF801EF56FF4F60837183828373
:100CE00093832AE037ED43E25CE3D80119966D91D6
:100CF0007D918D919C911C970E944D136B017C01FD
:100D0000F801EB56FF4F6083718382839383F80170
:100D1000EB55FF4FFC87EB87208131814281538166
:100D2000C301B2010E943D112B018D839E83CB0133
:100D3000AD81BE81EB85FC8580839183A283B383E3
:100D4000C80187559F4F9E878D87DC012D913D916E
:100D50004D915C916F85788989899A890E943D11AE
:100D60001B013C01CB01D301ED85FE85808391837E
:100D7000A283B383C80183559F4F988B8F87DC0173
:100D80002D913D914D915C91C701B6010E943D119D
:100D90006B017C01EF85F889608371838283938383
:100DA000A5019401C501B4010E944D134B015C01E2
:100DB0002F81388549855A85CA01B9010E944D1392
:100DC0009B01AC01C501B4010E943D114B015C01C6
:100DD00029813A814B815C81CA01B9010E944D137E
:100DE0009B01AC01C501B4010E943D110E94B413E6
:100DF00020E030E040E451E40E94031287FF4DC040
:100E000028E431EE4AE75FE3B2018D819E810E94C2
:100E10004D134B015C012AE037ED43EA5CE36B893B
:100E20007C898D899E890E944D139B01AC01C5016F
:100E3000B4010E943D112B018D839E83CB01AD81B6
:100E4000BE81EB85FC8580839183A283B38328E4F4
:100E500031EE4AE75FE3B101C3010E944D134B013C
:100E60005C016F89788D898D9A8D90582AE037EDD5
:100E700043EA5CE30E944D139B01AC01C501B40140
:100E80000E943D111B01AB01BC01AD85BE854D9398
:100E90005D936D937C9313973C015801B5E6AB0EBF
:100EA000B11CF801E756FF4F208131814281538107
:100EB000B2018D819E810E943C11F5016083718396
:100EC000828393835801F9E6AF0EB11CF801E35613
:100ED000FF4F2081318142815381B101C3010E94C2
:100EE0003C11D5016D937D938D939C93139758017D
:100EF000BDE6AB0EB11CF801EF55FF4F20813181EB
:100F000042815381C701B6010E943C11F501608303
:100F10007183828393836A960FB6F894DEBF0FBE07
:100F2000CDBFDF91CF911F910F91FF90EF90DF9098
:100F3000CF90BF90AF909F908F907F906F905F9079
:100F40004F903F902F900895CF93DF93EC01CB010A
:100F5000798368830E942B149B838A83DF91CF91CE
:100F60000895CF93DF93EC01CB01798368830E94CE
:100F70002B149B838A83DF91CF910895CF93FC013B
:100F8000408151816417750768F4CB01880F991F60
:100F9000860F971F0280F381E02DE80FF91FC081B3
:100FA000B181A2816C2F7B2F8A2FCF910895FC01F4
:100FB0008081918168177907C0F4CB01880F991F50
:100FC000860F971FA281B381A80FB91F2C93A2810E
:100FD000B381A80FB91F11963C930280F381E02DD5
:100FE000E80FF91F428380E0089581E00895EF92B1
:100FF000FF920F931F93FC01A681B7818C9190857E
:10100000892B8C93E680F780048115818081918102
:10101000AC01440F551F480F591F62817381208511
:10102000CF010E94DD0A1F910F91FF90EF9008956C
:101030000895FC0181E001C0880F2A95EAF78087B6
:101040007583648357834683089560E083E50E9437
:10105000C31081E30E94EF108BE00E94EF108FE33A
:101060009CE90197F1F700C0000060E083E50E9471
:10107000C3108DE20E94EF1080E00E94EF108FE31A
:101080009CE90197F1F700C0000060E083E50E9451
:10109000C3108DE20E94EF1086E10E94EF108FE3F3
:1010A0009CE90197F1F700C0000060E083E50E9431
:1010B000C3108DE20E94EF1088E00E94EF109FEFB6
:1010C00023EF81E0915020408040E1F700C0000014
:1010D0000C94E710CF92DF92EF92FF920F931F9341
:1010E000CF93DF93EC0160E083E50E94C31082E3BD
:1010F0000E94EF1061E083E50E94C3100E940A1174
:101100006E0197E4C90ED11C90E0F60191838083B3
:1011100060E083E50E94C31083E30E94EF1061E06A
:1011200083E50E94C3100E940A1190E0982F88273F
:10113000F60120813181280F391F3183208360E03F
:1011400083E50E94C31084E30E94EF1061E083E511
:101150000E94C3100E940A117E01F9E4EF0EF11CF7
:1011600090E0F7019183808360E083E50E94C310E3
:1011700085E30E94EF1061E083E50E94C3100E94A6
:101180000A1190E0982F8827F70120813181280FDC
:10119000391F3183208360E083E50E94C31086E31A
:1011A0000E94EF1061E083E50E94C3100E940A11C3
:1011B0008E01055B1F4F90E0F8019183808360E012
:1011C00083E50E94C31087E30E94EF1061E083E58E
:1011D0000E94C3100E940A1190E0982F8827F801FE
:1011E00020813181280F391F318320830E94E7102D
:1011F000F60160817181882777FD8095982F0E9484
:10120000711226E730EE4CE15DE30E944D132FA5ED
:1012100038A949A95AA90E943C11698B7A8B8B8BFA
:101220009C8BF70160817181882777FD8095982FCD
:101230000E94711226E730EE4CE15DE30E944D13EF
:101240002BA93CA94DA95EA90E943C116D8B7E8BF8
:101250008F8B988FF80160817181882777FD809549
:10126000982F0E94711226E730EE4CE15DE30E9458
:101270004D132FA938AD49AD5AAD0E943C11698F6D
:101280007A8F8B8F9C8FDF91CF911F910F91FF9061
:10129000EF90DF90CF90089588E090E09093CD009C
:1012A0008093CC00E9ECF0E08081886080838081CD
:1012B00080618083EAECF0E080818E608083089515
:1012C00008958091C80085FFFCCF6093CE000895FB
:1012D0008091C80085FFFCCF6093CE000895FB018C
:1012E0009081992351F031968091C80085FFFCCF01
:1012F0009093CE0091919111F7CF0895CF93DF9302
:10130000CDB7DEB72C970FB6F894DEBF0FBECDBFBA
:10131000CB01BA012AE030E0AE014F5F5F4F0E947F
:101320008615FC012081222351F031968091C8005E
:1013300085FFFCCF2093CE0021912111F7CF2C9671
:101340000FB6F894DEBF0FBECDBFDF91CF910895E9
:10135000CF93DF93CDB7DEB72C970FB6F894DEBFEF
:101360000FBECDBFCB01BA012AE030E0AE014F5F26
:101370005F4F0E945215FC012081222351F03196CB
:101380008091C80085FFFCCF2093CE0021912111D0
:10139000F7CF2C960FB6F894DEBF0FBECDBFDF910E
:1013A000CF9108950F931F93CF93DF93CDB7DEB7FF
:1013B0002C970FB6F894DEBF0FBECDBFCB01BA019C
:1013C0008E010F5F1F4F23E047E00E940A14FC01CB
:1013D0002081222351F031968091C80085FFFCCFF7
:1013E0002093CE0021912111F7CF2C960FB6F894BF
:1013F000DEBF0FBECDBFDF91CF911F910F9108953A
:1014000060E088E60E94C31085E10E94EF1080E052
:101410000E94EF100E94E7108FE39CE90197F1F71B
:1014200000C0000060E088E60E94C31086E10E94D0
:10143000EF1088E10E94EF100E94E7108FE39CE913
:101440000197F1F700C0000060E088E60E94C31039
:101450008EE30E94EF1081E00E94EF100E94E710DF
:101460008FE39CE90197F1F700C0000008951F93F6
:10147000CF93DF93EC0160E088E60E94C3108BE11C
:101480000E94EF1061E088E60E94C31088830E94EA
:1014900000118D8F0E9400118E8F0E9400118F8F7E
:1014A0000E94001188A30E94001189A30E940011CC
:1014B0008AA30E9400118BA30E940A11182F8CA3EB
:1014C0006D8D70E0762F66278E8D682B60577C4C73
:1014D000882777FD8095982F0E94711220E030E0D8
:1014E0004CE853E40E94071220E030E04CE052E464
:1014F0000E943D116D877E878F87988B6F8D70E07E
:10150000762F662788A1682B882777FD8095982FEE
:101510000E94711220E030E046E651E40E9407127A
:10152000FE01EF5AFF4F20813181428153810E9499
:101530003C1169837A838B839C8369A170E0762F49
:1015400066278AA1682B882777FD8095982F0E94AF
:10155000711220E030E046E651E40E940712FE01DD
:10156000E35BFF4F20813181428153810E943C1116
:101570006D837E838F8398878BA1612F70E0782B9A
:10158000882777FD8095982F0E94711220E030E027
:1015900046E651E40E940712FE01EB5AFF4F2081FC
:1015A0003181428153810E943C1169877A878B8700
:1015B0009C87DF91CF911F910895EF92FF920F9337
:1015C0001F93D801F7018081922F90959823282BA3
:1015D000FFB6F89441155105A9F0FB01460F571FBE
:1015E000819138E02C9300C087FF9C93880F00C046
:1015F00000C000C008F49C9300C03A9599F7E41726
:10160000F50771F7FFBE1F910F91FF90EF900895BE
:1016100086E091E00E9418088FE091E00E94EB0BB9
:1016200087E191E00C9432011F920F920FB60F9256
:1016300011242F933F934F935F936F937F938F93D7
:101640009F93AF93BF93EF93FF9387E191E00E9445
:101650002903FF91EF91BF91AF919F918F917F915E
:101660006F915F914F913F912F910F900FBE0F900F
:101670001F90189520E030E04FEF60E070E086E0CA
:1016800091E00E94D70786E091E00E94F7078FE083
:1016900091E00E94220C2FEF30E04FEF60E070E00D
:1016A00086E091E00E94D70786E091E00E94F7076C
:1016B00020E03FEF40E060E070E086E091E00E94D3
:1016C000D70786E091E00E94F70787E191E00E944A
:1016D0000C0F87E191E00E94460F84B5826084BDC3
:1016E0008CE987BDEEE6F0E08081826080837894AB
:1016F00085B5856085BD2FEF83ED90E32150804057
:101700009040E1F700C0000087E191E00E943401C1
:101710002FEF30E040E060E070E086E091E00E9472
:10172000D70786E091E00C94F70784B5826084BD0A
:101730008CE987BDEEE6F0E080818260808378945A
:1017400085B5856085BD0895CF93DF9384B1806EA4
:1017500084B93E9AE0E8F0E08081826080838081F5
:101760008E7F8083A1E8B0E08C91817F8C938C91F7
:1017700081618C93A6E8B0E08D919C9111978F6F59
:101780009F6311969C938E93A0E9B0E08C91826048
:101790008C938C918E7F8C93C1E9D0E08881817F7E
:1017A0008883888181618883C6E9D0E088819981B6
:1017B0008F6F9F639983888380818062808380811B
:1017C000806880838081886080838C9180688C931E
:1017D000DF91CF9108950895FC01808191818295D8
:1017E0009295907F9827807F98279E539093990099
:1017F000809398008281938182959295907F98271B
:10180000807F98279E5390938900809388008481DD
:10181000958182959295907F9827807F98279E53F7
:1018200090938D0080938C0086819781829592950C
:10183000907F9827807F98279E5390938B0080936A
:101840008A0008950F931F93CF93DF93FC0180EDDF
:1018500097E09583848397838683918380839383A2
:10186000828348E950E080E09FE3DA0111969C937F
:101870008E938281938182959295907F9827807F25
:1018800098279E5328E830E0D90111969C938E93B7
:101890008481958182959295907F9827807F982763
:1018A0009E53CCE8D0E09983888386819781829586
:1018B0009295907F9827807F98279E530AE810E0A2
:1018C000D80111969C938E93BFEF6DE389E4B150DC
:1018D00060408040E1F700C000008AEA95E095830F
:1018E000848397838683918380839383828380EA32
:1018F0009CE1DA0111969C938E938281938182956B
:101900009295907F9827807F98279E53D9011196B2
:101910009C938E938481958182959295907F982750
:10192000807F98279E5399838883868197818295AB
:101930009295907F9827807F98279E53F8019183F6
:101940008083FFEF23ED60E3F15020406040E1F73A
:1019500000C000008FEF93EDA0E381509040A040C5
:10196000E1F700C00000BFEFE3EDF0E3B150E0406D
:10197000F040E1F700C000002FEF63ED80E321505D
:1019800060408040E1F700C00000DF91CF911F91DF
:101990000F910895EF92FF921F93CF93DF93FC0175
:1019A0004CED55E0538342838081918182959295DD
:1019B000907F9827807F98279E5328E930E0D901AF
:1019C00011969C938E938281938182959295907FBC
:1019D0009827807F9827BC017E5388E890E0DC013F
:1019E00011967C936E936481758162957295707F78
:1019F0007627607F76277E53CCE8D0E079836883B2
:101A00006681778162957295707F7627607F7627F1
:101A10007E531AE8E12EF12CD70111967C936E9338
:101A2000BFEF19E668E1B15010406040E1F700C037
:101A30000000558344836081718162957295707F47
:101A40007627607F76277E53D90111967C936E931B
:101A50006281738162957295707F7627607F7627A9
:101A60007E53DC0111967C936E936481758162953F
:101A70007295707F7627607F76277E53798368839F
:101A80006681778162957295707F7627607F762771
:101A90007E53D70111967C936E93BFEF19E668E1F0
:101AA000B15010406040E1F700C000005183408316
:101AB00060EC7FE1D90111967C936E936281738112
:101AC00062957295707F7627607F76277E53DC0162
:101AD00011967C936E936481758162957295707F87
:101AE0007627607F76277E53798368836681778146
:101AF00062957295707F7627607F76277E53D70137
:101B000011967C936E93BFEF19E668E1B1501040D7
:101B10006040E1F700C00000578346834081518157
:101B200042955295507F5427407F54275E53D901E8
:101B300011965C934E932281338122953295307FAA
:101B40003227207F32273E53DC0111963C932E939F
:101B50008481958182959295907F9827807F9827A0
:101B60009E53998388838681978182959295907FF1
:101B70009827807F98279E53F70191838083FFEFFA
:101B800019E628E1F15010402040E1F700C00000C4
:101B9000DF91CF911F91FF90EF900895EF92FF9208
:101BA0001F93CF93DF93FC014AEA55E053834283AE
:101BB0008081918182959295907F9827807F982748
:101BC0009E5328E930E0D90111969C938E9382812F
:101BD000938182959295907F9827807F9827BC016A
:101BE0007E5388E890E0DC0111967C936E936481CB
:101BF000758162957295707F7627607F76277E5318
:101C0000CCE8D0E0798368836681778162957295AC
:101C1000707F7627607F76277E531AE8E12EF12CBD
:101C2000D70111967C936E93BFEF19E668E1B1502E
:101C300010406040E1F700C000005583448360819C
:101C4000718162957295707F7627607F76277E53CB
:101C5000D90111967C936E9362817381629572951E
:101C6000707F7627607F76277E53DC0111967C9308
:101C70006E936481758162957295707F7627607F1F
:101C800076277E5379836883668177816295729522
:101C9000707F7627607F76277E53D70111967C93DD
:101CA0006E93BFEF19E668E1B15010406040E1F774
:101CB00000C000005183408360EA7CE1D9011196A5
:101CC0007C936E936281738162957295707F7627A3
:101CD000607F76277E53DC0111967C936E9364813E
:101CE000758162957295707F7627607F76277E5327
:101CF000798368836681778162957295707F762794
:101D0000607F76277E53D70111967C936E93BFEF49
:101D100019E668E1B15010406040E1F700C00000F2
:101D2000578346834081518142955295507F542775
:101D3000407F54275E53D90111965C934E932281C4
:101D4000338122953295307F3227207F32273E53D0
:101D5000DC0111963C932E93848195818295929516
:101D6000907F9827807F98279E53998388838681C8
:101D7000978182959295907F9827807F98279E5390
:101D8000F70191838083FFEF19E628E1F1501040BD
:101D90002040E1F700C00000DF91CF911F91FF903C
:101DA000EF900895FC018AEA95E0958384839783F8
:101DB0008683918380839383828380EA9CE19093DE
:101DC0009900809398008281938182959295907F6B
:101DD0009827807F98279E5390938900809388004E
:101DE0008481958182959295907F9827807F98270E
:101DF0009E5390938D0080938C008681978182956D
:101E00009295907F9827807F98279E5390938B0080
:101E100080938A0008950895CF93DF93EC016E9A22
:101E20000E94B9108FE19EE40197F1F700C0000015
:101E3000CE010E94000ACE010E942508FE01E75A49
:101E4000FF4F1082118212821382FE01E35AFF4F6C
:101E50001082118212821382FE01EF59FF4F10820D
:101E60001182128213821BAE1CAE1DAE1EAEFE018D
:101E7000FF961082118212821382CD5BDF4F18828F
:101E800019821A821B82DF91CF910895CF93DF933D
:101E9000EC011BA61CA61DA61EA6769ACE010E94CA
:101EA000370ACE010E946A087698CE010E94840FFC
:101EB0004BA55CA56DA57EA54F5F5F4F6F4F7F4F14
:101EC0004BA75CA76DA77EA78FE19EE40197F1F772
:101ED00000C000008BA59CA5ADA5BEA58132934096
:101EE000A105B105D0F2DF91CF9108950895CF9368
:101EF000DF93EC01769A0E94370ACE010E946A08AD
:101F00007698DF91CF9108954F925F926F927F9272
:101F10008F929F92AF92BF92CF92DF92EF92FF92F9
:101F20000F931F93CF93DF938C01EC01C75ADF4FC0
:101F3000FC012181328143815481688179818A81C8
:101F40009B810E943D112B013C01688379838A8328
:101F50009B83E801C35ADF4FF80125813681478111
:101F60005085688179818A819B810E943D114B0156
:101F70005C01688379838A839B83E801CF59DF4FB3
:101F8000F8012185328543855485688179818A816C
:101F90009B810E943D116B017C01688379838A8358
:101FA0009B83F80183A594A5A5A5B6A5803293408F
:101FB000A105B10569F5E801CF5ADF4F20E030E017
:101FC00048E454E4C301B2010E9407126883798394
:101FD0008A839B83E801C35BDF4F20E030E048E465
:101FE00054E4C501B4010E940712688379838A838F
:101FF0009B83E801CB5ADF4F20E030E048E454E413
:10200000C701B6010E940712688379838A839B8384
:10201000DF91CF911F910F91FF90EF90DF90CF90C4
:10202000BF90AF909F908F907F906F905F904F90F8
:1020300008952F923F924F925F926F927F928F926C
:102040009F92AF92BF92CF92DF92EF92FF920F9347
:102050001F93CF93DF93EC018C01015C1F4FFC01B8
:10206000E75BFF4F60817181882777FD8095982F0E
:102070000E947112F80120813181428153810E94B6
:102080003D116B017C011E01F3E42F0E311CFE019A
:10209000E55BFF4F60817181882777FD8095982FE0
:1020A0000E947112F10120813181428153810E948D
:1020B0003D112B013C01FE01E95BFF4F6081718105
:1020C000882777FD8095982F0E9471122BAD3CAD2B
:1020D0004DAD5EAD0E943D1120E030E040E05FE399
:1020E0000E944D134B015C016BAF7CAF8DAF9EAF77
:1020F00020E030E040E05FE3C701B6010E944D13ED
:102100006B017C01F801608371838283938320E0FB
:1021100030E040E05FE3C301B2010E944D13F101E2
:1021200060837183828393838FA698AAA9AABAAA8F
:10213000CBAADCAAEDAAFEAA23EC35EF4CE151E4D0
:102140000E943C116FAB78AF89AF9AAFDF91CF910E
:102150001F910F91FF90EF90DF90CF90BF90AF90C5
:102160009F908F907F906F905F904F903F902F90B7
:1021700008958CE08093B8009091B80081E09B3086
:1021800008F480E0089594EA9093BC009091BC001C
:1021900097FFFCCF9091B900987F983021F0903153
:1021A00011F080E00895880F860F8093BB0084E8CB
:1021B0008093BC008091BC0087FFFCCF8091B90068
:1021C000887F883111F0803461F781E0089584E9D7
:1021D0008093BC008091BC0087FDFCCF0895809364
:1021E000BB0084E88093BC008091BC0087FFFCCFDB
:1021F0009091B900987F81E0983209F080E00895CD
:1022000084EC8093BC008091BC0087FFFCCF809160
:10221000BB00089584E88093BC008091BC0087FFD8
:10222000FCCF8091BB0008950E943A0BFFCF87E15D
:1022300091E00E9416018FE091E00E94A40B81E0E2
:1022400090E090930701809306010E942B149093D5
:1022500009018093080127E047E250E068E270E05E
:1022600086E091E00C9419080C94080BEE0FFF1F08
:102270000590F491E02D09945058BB27AA270ED061
:10228000CBC1BCD130F0C1D120F031F49F3F11F46B
:102290001EF48CC10EF4E095E7FB82C1E92FCDD18D
:1022A00080F3BA17620773078407950718F071F473
:1022B0009EF5E5C10EF4E0950B2EBA2FA02D0B0173
:1022C000B90190010C01CA01A0011124FF27591B7B
:1022D00099F0593F50F4503E68F11A16F040A22F81
:1022E000232F342F4427585FF3CF469537952795F2
:1022F000A795F0405395C9F77EF41F16BA0B620BF1
:10230000730B840BBAF09150A1F0FF0FBB1F661F37
:10231000771F881FC2F70EC0BA0F621F731F841F7A
:1023200048F4879577956795B795F7959E3F08F0A0
:10233000B3CF9395880F08F09927EE0F979587955F
:1023400008955CD158F080E891E009F49EEF5DD1EA
:1023500028F040E851E059F45EEF09C027C18FC171
:10236000E92FE0786AD168F3092E052AC1F3261710
:1023700037074807590738F00E2E07F8E02569F0AF
:10238000E025E0640AC0EF6307F8009407FADB0178
:10239000B9019D01DC01CA01AD01EF9347D03CD1E9
:1023A0000AD05F91552331F02BED3FE049E450FD19
:1023B00049EC63CF0895DF93DD27B92FBF7740E85D
:1023C0005FE31616170648075B0710F4D92F5ED196
:1023D0009F938F937F936F9305D2ECEAF0E0E9D05F
:1023E0001BD12F913F914F915F9163D1DD2349F034
:1023F0009058A2EA2AED3FE049EC5FE3D0785D27F0
:102400004DDFDF9109C1A8D008F481E008950CD018
:1024100003C1FBD040F0F2D030F021F45F3F19F05F
:10242000BFC051112DC1C2C008D198F39923C9F37F
:102430005523B1F3951B550BBB27AA2762177307CA
:10244000840738F09F5F5F4F220F331F441FAA1F7E
:10245000A9F333D00E2E3AF0E0E830D0915050403E
:10246000E695001CCAF729D0FE2F27D0660F771FEC
:10247000881FBB1F261737074807AB07B0E809F0CE
:10248000BB0B802DBF01FF2793585F4F2AF09E3F63
:10249000510568F085C0F4C05F3FECF3983EDCF373
:1024A000869577956795B795F7959F5FC9F7880FDC
:1024B000911D9695879597F90895E1E0660F771F2E
:1024C000881FBB1F621773078407BA0720F0621BBF
:1024D000730B840BBA0BEE1F88F7E0950895E89410
:1024E00009C097FB3EF490958095709561957F4F5C
:1024F0008F4F9F4F9923A9F0F92F96E9BB2793950A
:10250000F695879577956795B795F111F8CFFAF419
:10251000BB0F11F460FF1BC06F5F7F4F8F4F9F4F4A
:1025200016C0882311F096E911C0772321F09EE8A8
:10253000872F762F05C0662371F096E8862F70E00E
:1025400060E02AF09A95660F771F881FDAF7880FE8
:102550009695879597F90895990F0008550FAA0B3E
:10256000E0E8FEEF16161706E807F907C0F01216A6
:102570001306E407F50798F0621B730B840B950BA9
:1025800039F40A2661F0232B242B252B21F40895FE
:102590000A2609F4A140A6958FEF811D811D08959B
:1025A00097F99F6780E870E060E008959FEF80EC06
:1025B0000895DF93CF931F930F93FF92EF92DF92D3
:1025C0007B018C01689405C0DA2EEF0172D0FE0108
:1025D000E894A5912591359145915591AEF3EF0180
:1025E0005DDEFE019701A801DA9479F7DF90EF90A4
:1025F000FF900F911F91CF91DF91089500240A94CD
:102600001616170618060906089500240A941216CD
:102610001306140605060895092E0394000C11F400
:10262000882352F0BB0F40F4BF2B11F460FF04C0AD
:102630006F5F7F4F8F4F9F4F089557FD9058440F06
:10264000551F59F05F3F71F04795880F97FB991F11
:1026500061F09F3F79F087950895121613061406CE
:10266000551FF2CF4695F1DF08C01616170618065B
:10267000991FF1CF86957105610508940895E89436
:10268000BB2766277727CB0197F908959B01AC01FB
:1026900060E070E080E89FE3BACE0BD0BDCFAEDF44
:1026A00028F0B3DF18F0952309F07ACF7FCF1124FB
:1026B000E7CFC3DFA0F3959FD1F3950F50E0551FEF
:1026C000629FF001729FBB27F00DB11D639FAA2787
:1026D000F00DB11DAA1F649F6627B00DA11D661FD6
:1026E000829F2227B00DA11D621F739FB00DA11DF7
:1026F000621F839FA00D611D221F749F3327A00DB1
:10270000611D231F849F600D211D822F762F6A2F4C
:1027100011249F5750408AF0E1F088234AF0EE0FD1
:10272000FF1FBB1F661F771F881F91505040A9F7DE
:102730009E3F510570F034CFA3CF5F3FECF3983E3E
:10274000DCF3869577956795B795F795E7959F5F45
:10275000C1F7FE2B880F911D9695879597F90895DF
:1027600011F40EF423CF41C070DFD0F39923D9F3D5
:10277000CEF39F57550B87FF46D00024A0E640EAD2
:10278000900180585695979528F4805C660F771FC6
:10279000881F20F026173707480730F4621B730B99
:1027A000840B202931294A2BA695179407942025BC
:1027B00031254A2758F7660F771F881F20F0261704
:1027C0003707480730F4620B730B840B200D311D63
:1027D000411DA09581F7B901842F9158880F9695D6
:1027E000879508959B01AC0158CF9F3F31F09150E0
:1027F00020F4879577956795B795880F911D9695E5
:10280000879597F9089591505040660F771F881F5C
:10281000D2F70895EF920F931F93CF93DF93E801C0
:1028200047FF02C034E101C034E0E42FFF27E7FD99
:10283000F095F7FF03C0F195E195F109E32E022F22
:102840002E2FAE010E94AB15CE01DF91CF911F91CB
:102850000F91EF900895CF93DF938230910510F49C
:1028600082E090E0E091CA01F091CB0120E030E0FD
:10287000A0E0B0E0309739F1408151814817590705
:10288000B8F04817590771F482819381109729F0A5
:1028900013969C938E9312972CC09093CB018093A8
:1028A000CA0127C02115310531F04217530718F02E
:1028B000A901DB0101C0EF019A01BD01DF01028026
:1028C000F381E02DD7CF21153105F9F0281B390B05
:1028D0002430310580F48A819B816115710521F0D6
:1028E000FB019383828304C09093CB018093CA0140
:1028F000FE01329644C0FE01E20FF31F81939193D3
:1029000022503109398328833AC02091C80130917F
:10291000C901232B41F4209102013091030130932E
:10292000C9012093C80120910001309101012115B6
:10293000310541F42DB73EB7409104015091050196
:10294000241B350BE091C801F091C901E217F30790
:10295000A0F42E1B3F0B2817390778F0AC014E5F0F
:102960005F4F2417350748F04E0F5F1F5093C90182
:102970004093C8018193919302C0E0E0F0E0CF0161
:10298000DF91CF910895CF93DF93009709F487C02B
:10299000FC01329713821282C091CA01D091CB01FF
:1029A000209781F420813181280F391F8091C8013F
:1029B0009091C9018217930779F5F093C901E093CB
:1029C000C8016DC0DE0120E030E0AE17BF0750F453
:1029D00012964D915C9113979D014115510509F196
:1029E000DA01F3CFB383A28340815181840F951F15
:1029F0008A179B0771F48D919C911197840F951FF5
:102A000002969183808312968D919C911397938364
:102A100082832115310529F4F093CB01E093CA019B
:102A20003EC0D9011396FC93EE9312974D915D91A0
:102A3000A40FB51FEA17FB0779F480819181840FF9
:102A4000951F0296D90111969C938E938281938152
:102A500013969C938E931297E0E0F0E08A819B811D
:102A6000009719F0FE01EC01F9CFCE010296288102
:102A70003981820F931F2091C8013091C901281715
:102A8000390769F4309729F41092CB011092CA01EA
:102A900002C013821282D093C901C093C801DF9192
:102AA000CF910895FA01CF93FF93EF93223044F131
:102AB000253234F5C22FE894CA3049F497FB3EF42E
:102AC00090958095709561957F4F8F4F9F4F2C2FDC
:102AD000332744275527FF93EF930E941118EF9156
:102AE000FF91605D6A330CF0695D6193B901CA01C1
:102AF000605070408040904051F716F4CDE2C19391
:102B000010828F919F91CF910C940118FA01CF936D
:102B1000FF93EF932230CCF02532BCF4C22F2C2F40
:102B2000332744275527FF93EF930E941118EF9105
:102B3000FF91605D6A330CF0695D6193B901CA0170
:102B4000605070408040904051F710828F919F916B
:102B5000CF910C9401186F927F929F92AF92BF9287
:102B6000CF92DF92EF92FF920F931F93CF93DF9359
:102B7000CDB7DEB729970FB6F894DEBF0FBECDBF35
:102B80006A01B22E102F0C3320F4FF24F394F00EC0
:102B900002C04CE3F42E0F2D27E0AE014F5F5F4FD4
:102BA0000E9429177981272F2970213031F0E1FC0B
:102BB00006C0E0FC06C060E005C06DE203C06BE249
:102BC00001C060E2AE2DA07173FF36C0662311F024
:102BD00084E001C083E08B1510F4B81A01C0B12C59
:102BE000A1110BC0F6018B2D90E2882319F091936F
:102BF0008150FBCFCB0CD11CB12C662331F0F601F8
:102C0000608396012F5F3F4F6901C6010396E2FE84
:102C100005C02EE4F601208331E404C02EE6F6015F
:102C2000208331E631832283FC012B2D30E22223E5
:102C3000F1F131932150FBCF72FF40C0662311F0B8
:102C400084E001C083E08B1510F4B81A01C0B12CE8
:102C5000A1110BC0F6018B2D90E2882319F09193FE
:102C60008150FBCFCB0CD11CB12C662331F0F60187
:102C7000608396012F5F3F4F6901C6010396E2FE14
:102C800007C029E4F60120832EE4218326E406C050
:102C900029E6F60120832EE6218326E62283FC0125
:102CA0002B2D30E2222319F031932150FBCFFC0170
:102CB000EB0DF11D10828EEF9FEFB7C0B1E06111F7
:102CC00001C0B0E04B2F50E01816190624F49C0107
:102CD0002F5F3F4F02C021E030E0240F351F11234A
:102CE00029F0412F50E04F5F5F4F02C040E050E0BD
:102CF000420F531F2B2D30E04217530714F4B41A20
:102D000001C0B12C2E2D287159F4F6012B2D30E283
:102D1000222319F031932150FBCFCB0CD11CB12CC5
:102D2000BB2331F0F601608396012F5F3F4F6901AD
:102D3000A1110BC0F6012B2D30E3222319F03193A2
:102D40002150FBCFCB0CD11CB12CF80E0A81372FB0
:102D50003071A32E74FF03C0013309F4FA941F14D9
:102D60002CF42F2D293018F028E001C021E0682F25
:102D7000392F97FF02C060E030E0462F532F612CBF
:102D8000712C3EE2932EBC01621B71099B01DC0198
:102D9000A41BB50BE1E0F0E0EC0FFD1FAE0FBF1F71
:102DA000E12EF12CF194E194F1084F3FFFEF5F0722
:102DB00031F4F6019082B6016F5F7F4F6B0184178B
:102DC00095074CF02417350734F4BD01660D771DC7
:102DD000FB01118101C010E341505109FFEF6F1A4F
:102DE0007F0AB6016F5F7F4F4E155F0524F0F60135
:102DF00010836B01DACF4817590739F4063320F4F2
:102E0000053319F4A11001C011E3F6011083FB0191
:102E10008B2D90E2882319F091938150FBCFFB0119
:102E2000EB0DF11D108280E090E029960FB6F8942A
:102E3000DEBF0FBECDBFDF91CF911F910F91FF90ED
:102E4000EF90DF90CF90BF90AF909F907F906F906A
:102E50000895283008F027E03327DA01990F311D53
:102E600087FD916000966105710539F432602E5F2F
:102E70003D9330E32A95E1F708959F3F30F0803885
:102E80007105610509F03C5F3C5F3D93913008F0AE
:102E90008068911DDF93CF931F930F93FF92EF9262
:102EA000192F987F9695E92F96959695E90FFF270C
:102EB000ED5CFE4F99273327EE24FF24A701E7019D
:102EC00005900894079428F4360FE71EF81E491F52
:102ED000511D660F771F881F991F0694A1F7059053
:102EE000079428F4E70EF81E491F561FC11D770FDF
:102EF000881F991F661F0694A1F70590079428F470
:102F0000F80E491F561FC71FD11D880F991F661F36
:102F1000771F0694A1F70590079420F4490F561FD8
:102F2000C71FD81F990F661F771F881F0694A9F720
:102F300084911095177041F0D695C7955795479590
:102F4000F794E7941A95C1F7E9EDF0E068941590CD
:102F5000159135916591959105907FE27395E118F2
:102F6000F10A430B560BC90BD009C0F7E10CF11E57
:102F7000431F561FC91FD01D7EF4703311F48A956C
:102F8000E6CFE894015030F0080F0AF4002702174A
:102F900008F4202F2395022F7A3328F079E37D93CC
:102FA0002A95E9F710C07D932A9589F6069497959E
:102FB0006795379517951794E118F10A430B560B4F
:102FC000C90BD00998F023957E9173957A3308F058
:102FD00070E37C932013B8F77E9170617D9330F09D
:102FE000839571E37D9370E32A95E1F71124EF90C7
:102FF000FF900F911F91CF91DF91992787FD9095B9
:103000000895DC01FC01672F71917723E1F7329776
:1030100004C07C916D9370836291AE17BF07C8F3B3
:103020000895A1E21A2EAA1BBB1BFD010DC0AA1F09
:10303000BB1FEE1FFF1FA217B307E407F50720F021
:10304000A21BB30BE40BF50B661F771F881F991F9C
:103050001A9469F760957095809590959B01AC01E5
:10306000BD01CF01089511E0C6EDD1E004C0FE011D
:103070000E9438112296C83DD107C9F7F894FFCFB6
:063080000000CC0120005D
:00000001FF
